{
  "_format": "hh3-artifact-1",
  "contractName": "MockLending",
  "sourceName": "contracts/MockLending.sol",
  "abi": [
    {
      "inputs": [
        {
          "internalType": "address",
          "name": "oracleAddress",
          "type": "address"
        },
        {
          "internalType": "address",
          "name": "tokenAddress",
          "type": "address"
        }
      ],
      "stateMutability": "nonpayable",
      "type": "constructor"
    },
    {
      "anonymous": false,
      "inputs": [
        {
          "indexed": true,
          "internalType": "address",
          "name": "user",
          "type": "address"
        },
        {
          "indexed": false,
          "internalType": "uint256",
          "name": "amount",
          "type": "uint256"
        },
        {
          "indexed": false,
          "internalType": "uint256",
          "name": "apr",
          "type": "uint256"
        }
      ],
      "name": "LoanDisbursed",
      "type": "event"
    },
    {
      "anonymous": false,
      "inputs": [
        {
          "indexed": true,
          "internalType": "address",
          "name": "user",
          "type": "address"
        },
        {
          "indexed": false,
          "internalType": "uint256",
          "name": "amount",
          "type": "uint256"
        }
      ],
      "name": "LoanRepaid",
      "type": "event"
    },
    {
      "inputs": [
        {
          "internalType": "address",
          "name": "agent",
          "type": "address"
        }
      ],
      "name": "addAgent",
      "outputs": [],
      "stateMutability": "nonpayable",
      "type": "function"
    },
    {
      "inputs": [
        {
          "internalType": "address",
          "name": "",
          "type": "address"
        }
      ],
      "name": "agents",
      "outputs": [
        {
          "internalType": "bool",
          "name": "",
          "type": "bool"
        }
      ],
      "stateMutability": "view",
      "type": "function"
    },
    {
      "inputs": [
        {
          "internalType": "address",
          "name": "user",
          "type": "address"
        },
        {
          "internalType": "uint256",
          "name": "amount",
          "type": "uint256"
        }
      ],
      "name": "disburseLoan",
      "outputs": [],
      "stateMutability": "nonpayable",
      "type": "function"
    },
    {
      "inputs": [
        {
          "internalType": "address",
          "name": "",
          "type": "address"
        }
      ],
      "name": "loans",
      "outputs": [
        {
          "internalType": "uint256",
          "name": "amount",
          "type": "uint256"
        },
        {
          "internalType": "uint256",
          "name": "apr",
          "type": "uint256"
        },
        {
          "internalType": "uint256",
          "name": "timestamp",
          "type": "uint256"
        },
        {
          "internalType": "bool",
          "name": "active",
          "type": "bool"
        }
      ],
      "stateMutability": "view",
      "type": "function"
    },
    {
      "inputs": [],
      "name": "oracle",
      "outputs": [
        {
          "internalType": "contract IFlareCreditOracle",
          "name": "",
          "type": "address"
        }
      ],
      "stateMutability": "view",
      "type": "function"
    },
    {
      "inputs": [],
      "name": "owner",
      "outputs": [
        {
          "internalType": "address",
          "name": "",
          "type": "address"
        }
      ],
      "stateMutability": "view",
      "type": "function"
    },
    {
      "inputs": [],
      "name": "poolBalance",
      "outputs": [
        {
          "internalType": "uint256",
          "name": "",
          "type": "uint256"
        }
      ],
      "stateMutability": "view",
      "type": "function"
    },
    {
      "inputs": [],
      "name": "repay",
      "outputs": [],
      "stateMutability": "nonpayable",
      "type": "function"
    },
    {
      "inputs": [],
      "name": "token",
      "outputs": [
        {
          "internalType": "contract IERC20",
          "name": "",
          "type": "address"
        }
      ],
      "stateMutability": "view",
      "type": "function"
    }
  ],
  "bytecode": "0x608060405234801562000010575f80fd5b50604051620015b9380380620015b98339818101604052810190620000369190620001b7565b815f806101000a81548173ffffffffffffffffffffffffffffffffffffffff021916908373ffffffffffffffffffffffffffffffffffffffff1602179055508060015f6101000a81548173ffffffffffffffffffffffffffffffffffffffff021916908373ffffffffffffffffffffffffffffffffffffffff1602179055503360025f6101000a81548173ffffffffffffffffffffffffffffffffffffffff021916908373ffffffffffffffffffffffffffffffffffffffff160217905550600160035f3373ffffffffffffffffffffffffffffffffffffffff1673ffffffffffffffffffffffffffffffffffffffff1681526020019081526020015f205f6101000a81548160ff0219169083151502179055505050620001fc565b5f80fd5b5f73ffffffffffffffffffffffffffffffffffffffff82169050919050565b5f620001818262000156565b9050919050565b620001938162000175565b81146200019e575f80fd5b50565b5f81519050620001b18162000188565b92915050565b5f8060408385031215620001d057620001cf62000152565b5b5f620001df85828601620001a1565b9250506020620001f285828601620001a1565b9150509250929050565b6113af806200020a5f395ff3fe608060405234801561000f575f80fd5b5060043610610091575f3560e01c80638da5cb5b116100645780638da5cb5b1461010c57806396365d441461012a578063b22d62f314610148578063fc0c546a14610164578063fd66091e1461018257610091565b8063402d88831461009557806373b4086b1461009f5780637dc0d1d0146100d257806384e79842146100f0575b5f80fd5b61009d6101b2565b005b6100b960048036038101906100b49190610bbc565b610391565b6040516100c99493929190610c19565b60405180910390f35b6100da6103c9565b6040516100e79190610cb7565b60405180910390f35b61010a60048036038101906101059190610bbc565b6103ec565b005b6101146104d3565b6040516101219190610cdf565b60405180910390f35b6101326104f8565b60405161013f9190610cf8565b60405180910390f35b610162600480360381019061015d9190610d3b565b610597565b005b61016c610b1c565b6040516101799190610d99565b60405180910390f35b61019c60048036038101906101979190610bbc565b610b41565b6040516101a99190610db2565b60405180910390f35b5f60045f3373ffffffffffffffffffffffffffffffffffffffff1673ffffffffffffffffffffffffffffffffffffffff1681526020019081526020015f209050806003015f9054906101000a900460ff16610242576040517f08c379a000000000000000000000000000000000000000000000000000000000815260040161023990610e25565b60405180910390fd5b60015f9054906101000a900473ffffffffffffffffffffffffffffffffffffffff1673ffffffffffffffffffffffffffffffffffffffff166323b872dd3330845f01546040518463ffffffff1660e01b81526004016102a393929190610e43565b6020604051808303815f875af11580156102bf573d5f803e3d5ffd5b505050506040513d601f19601f820116820180604052508101906102e39190610ea2565b610322576040517f08c379a000000000000000000000000000000000000000000000000000000000815260040161031990610f17565b60405180910390fd5b5f816003015f6101000a81548160ff0219169083151502179055503373ffffffffffffffffffffffffffffffffffffffff167fc200a1f31dd659e356e0f112c82558e25f49f7b0f84438691cd96f5cb3558823825f01546040516103869190610cf8565b60405180910390a250565b6004602052805f5260405f205f91509050805f015490806001015490806002015490806003015f9054906101000a900460ff16905084565b5f8054906101000a900473ffffffffffffffffffffffffffffffffffffffff1681565b60025f9054906101000a900473ffffffffffffffffffffffffffffffffffffffff1673ffffffffffffffffffffffffffffffffffffffff163373ffffffffffffffffffffffffffffffffffffffff161461047b576040517f08c379a000000000000000000000000000000000000000000000000000000000815260040161047290610f7f565b60405180910390fd5b600160035f8373ffffffffffffffffffffffffffffffffffffffff1673ffffffffffffffffffffffffffffffffffffffff1681526020019081526020015f205f6101000a81548160ff02191690831515021790555050565b60025f9054906101000a900473ffffffffffffffffffffffffffffffffffffffff1681565b5f60015f9054906101000a900473ffffffffffffffffffffffffffffffffffffffff1673ffffffffffffffffffffffffffffffffffffffff166370a08231306040518263ffffffff1660e01b81526004016105539190610cdf565b602060405180830381865afa15801561056e573d5f803e3d5ffd5b505050506040513d601f19601f820116820180604052508101906105929190610fb1565b905090565b60035f3373ffffffffffffffffffffffffffffffffffffffff1673ffffffffffffffffffffffffffffffffffffffff1681526020019081526020015f205f9054906101000a900460ff1680610638575060025f9054906101000a900473ffffffffffffffffffffffffffffffffffffffff1673ffffffffffffffffffffffffffffffffffffffff163373ffffffffffffffffffffffffffffffffffffffff16145b610677576040517f08c379a000000000000000000000000000000000000000000000000000000000815260040161066e90611026565b60405180910390fd5b5f805f805f9054906101000a900473ffffffffffffffffffffffffffffffffffffffff1673ffffffffffffffffffffffffffffffffffffffff1663d47875d0866040518263ffffffff1660e01b81526004016106d39190610cdf565b60a060405180830381865afa1580156106ee573d5f803e3d5ffd5b505050506040513d601f19601f820116820180604052508101906107129190611044565b94509450945050505f831161075c576040517f08c379a000000000000000000000000000000000000000000000000000000000815260040161075390611105565b60405180910390fd5b60328311156107a0576040517f08c379a00000000000000000000000000000000000000000000000000000000081526004016107979061116d565b60405180910390fd5b818411156107e3576040517f08c379a00000000000000000000000000000000000000000000000000000000081526004016107da906111d5565b60405180910390fd5b60045f8673ffffffffffffffffffffffffffffffffffffffff1673ffffffffffffffffffffffffffffffffffffffff1681526020019081526020015f206003015f9054906101000a900460ff1615610870576040517f08c379a00000000000000000000000000000000000000000000000000000000081526004016108679061123d565b60405180910390fd5b8360015f9054906101000a900473ffffffffffffffffffffffffffffffffffffffff1673ffffffffffffffffffffffffffffffffffffffff166370a08231306040518263ffffffff1660e01b81526004016108cb9190610cdf565b602060405180830381865afa1580156108e6573d5f803e3d5ffd5b505050506040513d601f19601f8201168201806040525081019061090a9190610fb1565b101561094b576040517f08c379a0000000000000000000000000000000000000000000000000000000008152600401610942906112a5565b60405180910390fd5b60015f9054906101000a900473ffffffffffffffffffffffffffffffffffffffff1673ffffffffffffffffffffffffffffffffffffffff1663a9059cbb86866040518363ffffffff1660e01b81526004016109a79291906112c3565b6020604051808303815f875af11580156109c3573d5f803e3d5ffd5b505050506040513d601f19601f820116820180604052508101906109e79190610ea2565b610a26576040517f08c379a0000000000000000000000000000000000000000000000000000000008152600401610a1d90611334565b60405180910390fd5b60405180608001604052808581526020018281526020014281526020016001151581525060045f8773ffffffffffffffffffffffffffffffffffffffff1673ffffffffffffffffffffffffffffffffffffffff1681526020019081526020015f205f820151815f015560208201518160010155604082015181600201556060820151816003015f6101000a81548160ff0219169083151502179055509050508473ffffffffffffffffffffffffffffffffffffffff167f5660f932172e1664b98577a703dd9484d374b28e3bf8c87b345bee97af6124128583604051610b0d929190611352565b60405180910390a25050505050565b60015f9054906101000a900473ffffffffffffffffffffffffffffffffffffffff1681565b6003602052805f5260405f205f915054906101000a900460ff1681565b5f80fd5b5f73ffffffffffffffffffffffffffffffffffffffff82169050919050565b5f610b8b82610b62565b9050919050565b610b9b81610b81565b8114610ba5575f80fd5b50565b5f81359050610bb681610b92565b92915050565b5f60208284031215610bd157610bd0610b5e565b5b5f610bde84828501610ba8565b91505092915050565b5f819050919050565b610bf981610be7565b82525050565b5f8115159050919050565b610c1381610bff565b82525050565b5f608082019050610c2c5f830187610bf0565b610c396020830186610bf0565b610c466040830185610bf0565b610c536060830184610c0a565b95945050505050565b5f819050919050565b5f610c7f610c7a610c7584610b62565b610c5c565b610b62565b9050919050565b5f610c9082610c65565b9050919050565b5f610ca182610c86565b9050919050565b610cb181610c97565b82525050565b5f602082019050610cca5f830184610ca8565b92915050565b610cd981610b81565b82525050565b5f602082019050610cf25f830184610cd0565b92915050565b5f602082019050610d0b5f830184610bf0565b92915050565b610d1a81610be7565b8114610d24575f80fd5b50565b5f81359050610d3581610d11565b92915050565b5f8060408385031215610d5157610d50610b5e565b5b5f610d5e85828601610ba8565b9250506020610d6f85828601610d27565b9150509250929050565b5f610d8382610c86565b9050919050565b610d9381610d79565b82525050565b5f602082019050610dac5f830184610d8a565b92915050565b5f602082019050610dc55f830184610c0a565b92915050565b5f82825260208201905092915050565b7f4e6f20616374697665206c6f616e0000000000000000000000000000000000005f82015250565b5f610e0f600e83610dcb565b9150610e1a82610ddb565b602082019050919050565b5f6020820190508181035f830152610e3c81610e03565b9050919050565b5f606082019050610e565f830186610cd0565b610e636020830185610cd0565b610e706040830184610bf0565b949350505050565b610e8181610bff565b8114610e8b575f80fd5b50565b5f81519050610e9c81610e78565b92915050565b5f60208284031215610eb757610eb6610b5e565b5b5f610ec484828501610e8e565b91505092915050565b7f5265706179206661696c656400000000000000000000000000000000000000005f82015250565b5f610f01600c83610dcb565b9150610f0c82610ecd565b602082019050919050565b5f6020820190508181035f830152610f2e81610ef5565b9050919050565b7f4e6f74206f776e657200000000000000000000000000000000000000000000005f82015250565b5f610f69600983610dcb565b9150610f7482610f35565b602082019050919050565b5f6020820190508181035f830152610f9681610f5d565b9050919050565b5f81519050610fab81610d11565b92915050565b5f60208284031215610fc657610fc5610b5e565b5b5f610fd384828501610f9d565b91505092915050565b7f4e6f7420617574686f72697a65640000000000000000000000000000000000005f82015250565b5f611010600e83610dcb565b915061101b82610fdc565b602082019050919050565b5f6020820190508181035f83015261103d81611004565b9050919050565b5f805f805f60a0868803121561105d5761105c610b5e565b5b5f61106a88828901610f9d565b955050602061107b88828901610f9d565b945050604061108c88828901610f9d565b935050606061109d88828901610f9d565b92505060806110ae88828901610f9d565b9150509295509295909350565b7f4e6f206372656469742073636f7265206f6e2066696c650000000000000000005f82015250565b5f6110ef601783610dcb565b91506110fa826110bb565b602082019050919050565b5f6020820190508181035f83015261111c816110e3565b9050919050565b7f437265646974207269736b20746f6f20686967680000000000000000000000005f82015250565b5f611157601483610dcb565b915061116282611123565b602082019050919050565b5f6020820190508181035f8301526111848161114b565b9050919050565b7f45786365656473206d617820626f72726f77206c696d697400000000000000005f82015250565b5f6111bf601883610dcb565b91506111ca8261118b565b602082019050919050565b5f6020820190508181035f8301526111ec816111b3565b9050919050565b7f416c72656164792068617320616374697665206c6f616e0000000000000000005f82015250565b5f611227601783610dcb565b9150611232826111f3565b602082019050919050565b5f6020820190508181035f8301526112548161121b565b9050919050565b7f4c656e64696e6720706f6f6c20696e73756666696369656e74000000000000005f82015250565b5f61128f601983610dcb565b915061129a8261125b565b602082019050919050565b5f6020820190508181035f8301526112bc81611283565b9050919050565b5f6040820190506112d65f830185610cd0565b6112e36020830184610bf0565b9392505050565b7f5472616e73666572206661696c656400000000000000000000000000000000005f82015250565b5f61131e600f83610dcb565b9150611329826112ea565b602082019050919050565b5f6020820190508181035f83015261134b81611312565b9050919050565b5f6040820190506113655f830185610bf0565b6113726020830184610bf0565b939250505056fea264697066735822122056cecb17d447335d4c0ecea5ed7d1e2b4deb83a12009f7547fd841e75004fa3e64736f6c63430008140033",
  "linkReferences": {},
  "deployedLinkReferences": {},
  "immutableReferences": {},
  "inputSourceName": "project/contracts/MockLending.sol",
  "buildInfoId": "solc-0_8_20-f1b47e412bd7d739301863c0fd9d826d9a762b2d"
}