{
  "_format": "hh3-artifact-1",
  "contractName": "FlareCreditOracle",
  "sourceName": "contracts/FlareCreditOracle.sol",
  "abi": [
    {
      "inputs": [],
      "stateMutability": "nonpayable",
      "type": "constructor"
    },
    {
      "anonymous": false,
      "inputs": [
        {
          "indexed": true,
          "internalType": "address",
          "name": "user",
          "type": "address"
        }
      ],
      "name": "CreditScoreRequested",
      "type": "event"
    },
    {
      "anonymous": false,
      "inputs": [
        {
          "indexed": true,
          "internalType": "address",
          "name": "user",
          "type": "address"
        },
        {
          "indexed": false,
          "internalType": "uint256",
          "name": "combinedRiskScore",
          "type": "uint256"
        },
        {
          "indexed": false,
          "internalType": "uint256",
          "name": "maxBorrowAmount",
          "type": "uint256"
        }
      ],
      "name": "CreditScoreSubmitted",
      "type": "event"
    },
    {
      "inputs": [
        {
          "internalType": "address",
          "name": "agent",
          "type": "address"
        }
      ],
      "name": "addAgent",
      "outputs": [],
      "stateMutability": "nonpayable",
      "type": "function"
    },
    {
      "inputs": [
        {
          "internalType": "address",
          "name": "",
          "type": "address"
        }
      ],
      "name": "agents",
      "outputs": [
        {
          "internalType": "bool",
          "name": "",
          "type": "bool"
        }
      ],
      "stateMutability": "view",
      "type": "function"
    },
    {
      "inputs": [
        {
          "internalType": "address",
          "name": "user",
          "type": "address"
        }
      ],
      "name": "getFullScore",
      "outputs": [
        {
          "components": [
            {
              "internalType": "uint256",
              "name": "tradFiScore",
              "type": "uint256"
            },
            {
              "internalType": "uint256",
              "name": "onChainScore",
              "type": "uint256"
            },
            {
              "internalType": "uint256",
              "name": "combinedRiskScore",
              "type": "uint256"
            },
            {
              "internalType": "uint256",
              "name": "maxBorrowAmount",
              "type": "uint256"
            },
            {
              "internalType": "uint256",
              "name": "apr",
              "type": "uint256"
            },
            {
              "internalType": "uint256",
              "name": "validUntil",
              "type": "uint256"
            }
          ],
          "internalType": "struct FlareCreditOracle.CreditScore",
          "name": "",
          "type": "tuple"
        }
      ],
      "stateMutability": "view",
      "type": "function"
    },
    {
      "inputs": [
        {
          "internalType": "address",
          "name": "user",
          "type": "address"
        }
      ],
      "name": "getScore",
      "outputs": [
        {
          "internalType": "uint256",
          "name": "tradFiScore",
          "type": "uint256"
        },
        {
          "internalType": "uint256",
          "name": "onChainScore",
          "type": "uint256"
        },
        {
          "internalType": "uint256",
          "name": "combinedRiskScore",
          "type": "uint256"
        },
        {
          "internalType": "uint256",
          "name": "maxBorrowAmount",
          "type": "uint256"
        },
        {
          "internalType": "uint256",
          "name": "recommendedAPR",
          "type": "uint256"
        }
      ],
      "stateMutability": "view",
      "type": "function"
    },
    {
      "inputs": [],
      "name": "owner",
      "outputs": [
        {
          "internalType": "address",
          "name": "",
          "type": "address"
        }
      ],
      "stateMutability": "view",
      "type": "function"
    },
    {
      "inputs": [],
      "name": "requestCreditScore",
      "outputs": [],
      "stateMutability": "nonpayable",
      "type": "function"
    },
    {
      "inputs": [
        {
          "internalType": "address",
          "name": "",
          "type": "address"
        }
      ],
      "name": "scores",
      "outputs": [
        {
          "internalType": "uint256",
          "name": "tradFiScore",
          "type": "uint256"
        },
        {
          "internalType": "uint256",
          "name": "onChainScore",
          "type": "uint256"
        },
        {
          "internalType": "uint256",
          "name": "combinedRiskScore",
          "type": "uint256"
        },
        {
          "internalType": "uint256",
          "name": "maxBorrowAmount",
          "type": "uint256"
        },
        {
          "internalType": "uint256",
          "name": "apr",
          "type": "uint256"
        },
        {
          "internalType": "uint256",
          "name": "validUntil",
          "type": "uint256"
        }
      ],
      "stateMutability": "view",
      "type": "function"
    },
    {
      "inputs": [
        {
          "internalType": "address",
          "name": "user",
          "type": "address"
        },
        {
          "internalType": "uint256",
          "name": "tradFiScore",
          "type": "uint256"
        },
        {
          "internalType": "uint256",
          "name": "onChainScore",
          "type": "uint256"
        },
        {
          "internalType": "uint256",
          "name": "combinedRiskScore",
          "type": "uint256"
        },
        {
          "internalType": "uint256",
          "name": "maxBorrowAmount",
          "type": "uint256"
        },
        {
          "internalType": "uint256",
          "name": "apr",
          "type": "uint256"
        },
        {
          "internalType": "uint256",
          "name": "validUntil",
          "type": "uint256"
        }
      ],
      "name": "submitCreditScore",
      "outputs": [],
      "stateMutability": "nonpayable",
      "type": "function"
    }
  ],
  "bytecode": "0x608060405234801561000f575f80fd5b50335f806101000a81548173ffffffffffffffffffffffffffffffffffffffff021916908373ffffffffffffffffffffffffffffffffffffffff1602179055506001805f3373ffffffffffffffffffffffffffffffffffffffff1673ffffffffffffffffffffffffffffffffffffffff1681526020019081526020015f205f6101000a81548160ff021916908315150217905550610afc806100b05f395ff3fe608060405234801561000f575f80fd5b5060043610610086575f3560e01c80638da5cb5b116100595780638da5cb5b14610115578063d47875d014610133578063e091722014610167578063fd66091e1461018357610086565b8063242078351461008a5780633fa8954c1461009457806376dd110f146100c457806384e79842146100f9575b5f80fd5b6100926101b3565b005b6100ae60048036038101906100a99190610709565b6101f8565b6040516100bb91906107c5565b60405180910390f35b6100de60048036038101906100d99190610709565b61028a565b6040516100f0969594939291906107ed565b60405180910390f35b610113600480360381019061010e9190610709565b6102c2565b005b61011d6103a6565b60405161012a919061085b565b60405180910390f35b61014d60048036038101906101489190610709565b6103c9565b60405161015e959493929190610874565b60405180910390f35b610181600480360381019061017c91906108ef565b610480565b005b61019d60048036038101906101989190610709565b61065e565b6040516101aa91906109a6565b60405180910390f35b3373ffffffffffffffffffffffffffffffffffffffff167fe4d01d3ca6074f4e3b7b08dd2f7e5d3fb53444881769d53cfb8edfac696ee25660405160405180910390a2565b61020061067b565b60025f8373ffffffffffffffffffffffffffffffffffffffff1673ffffffffffffffffffffffffffffffffffffffff1681526020019081526020015f206040518060c00160405290815f8201548152602001600182015481526020016002820154815260200160038201548152602001600482015481526020016005820154815250509050919050565b6002602052805f5260405f205f91509050805f0154908060010154908060020154908060030154908060040154908060050154905086565b5f8054906101000a900473ffffffffffffffffffffffffffffffffffffffff1673ffffffffffffffffffffffffffffffffffffffff163373ffffffffffffffffffffffffffffffffffffffff161461034f576040517f08c379a000000000000000000000000000000000000000000000000000000000815260040161034690610a19565b60405180910390fd5b6001805f8373ffffffffffffffffffffffffffffffffffffffff1673ffffffffffffffffffffffffffffffffffffffff1681526020019081526020015f205f6101000a81548160ff02191690831515021790555050565b5f8054906101000a900473ffffffffffffffffffffffffffffffffffffffff1681565b5f805f805f8060025f8873ffffffffffffffffffffffffffffffffffffffff1673ffffffffffffffffffffffffffffffffffffffff1681526020019081526020015f206040518060c00160405290815f8201548152602001600182015481526020016002820154815260200160038201548152602001600482015481526020016005820154815250509050805f01518160200151826040015183606001518460800151955095509550955095505091939590929450565b60015f3373ffffffffffffffffffffffffffffffffffffffff1673ffffffffffffffffffffffffffffffffffffffff1681526020019081526020015f205f9054906101000a900460ff168061051f57505f8054906101000a900473ffffffffffffffffffffffffffffffffffffffff1673ffffffffffffffffffffffffffffffffffffffff163373ffffffffffffffffffffffffffffffffffffffff16145b61055e576040517f08c379a000000000000000000000000000000000000000000000000000000000815260040161055590610a81565b60405180910390fd5b6040518060c001604052808781526020018681526020018581526020018481526020018381526020018281525060025f8973ffffffffffffffffffffffffffffffffffffffff1673ffffffffffffffffffffffffffffffffffffffff1681526020019081526020015f205f820151815f01556020820151816001015560408201518160020155606082015181600301556080820151816004015560a082015181600501559050508673ffffffffffffffffffffffffffffffffffffffff167f29f3ab27ab8ef9385dc8e3bd73f48f679bf02d410e945fbb0a8dfb999f0b6fe5858560405161064d929190610a9f565b60405180910390a250505050505050565b6001602052805f5260405f205f915054906101000a900460ff1681565b6040518060c001604052805f81526020015f81526020015f81526020015f81526020015f81526020015f81525090565b5f80fd5b5f73ffffffffffffffffffffffffffffffffffffffff82169050919050565b5f6106d8826106af565b9050919050565b6106e8816106ce565b81146106f2575f80fd5b50565b5f81359050610703816106df565b92915050565b5f6020828403121561071e5761071d6106ab565b5b5f61072b848285016106f5565b91505092915050565b5f819050919050565b61074681610734565b82525050565b60c082015f8201516107605f85018261073d565b506020820151610773602085018261073d565b506040820151610786604085018261073d565b506060820151610799606085018261073d565b5060808201516107ac608085018261073d565b5060a08201516107bf60a085018261073d565b50505050565b5f60c0820190506107d85f83018461074c565b92915050565b6107e781610734565b82525050565b5f60c0820190506108005f8301896107de565b61080d60208301886107de565b61081a60408301876107de565b61082760608301866107de565b61083460808301856107de565b61084160a08301846107de565b979650505050505050565b610855816106ce565b82525050565b5f60208201905061086e5f83018461084c565b92915050565b5f60a0820190506108875f8301886107de565b61089460208301876107de565b6108a160408301866107de565b6108ae60608301856107de565b6108bb60808301846107de565b9695505050505050565b6108ce81610734565b81146108d8575f80fd5b50565b5f813590506108e9816108c5565b92915050565b5f805f805f805f60e0888a03121561090a576109096106ab565b5b5f6109178a828b016106f5565b97505060206109288a828b016108db565b96505060406109398a828b016108db565b955050606061094a8a828b016108db565b945050608061095b8a828b016108db565b93505060a061096c8a828b016108db565b92505060c061097d8a828b016108db565b91505092959891949750929550565b5f8115159050919050565b6109a08161098c565b82525050565b5f6020820190506109b95f830184610997565b92915050565b5f82825260208201905092915050565b7f4e6f74206f776e657200000000000000000000000000000000000000000000005f82015250565b5f610a036009836109bf565b9150610a0e826109cf565b602082019050919050565b5f6020820190508181035f830152610a30816109f7565b9050919050565b7f4e6f7420617574686f72697a6564206167656e740000000000000000000000005f82015250565b5f610a6b6014836109bf565b9150610a7682610a37565b602082019050919050565b5f6020820190508181035f830152610a9881610a5f565b9050919050565b5f604082019050610ab25f8301856107de565b610abf60208301846107de565b939250505056fea26469706673582212207861c8944be3e19c6922bbbdefd43fb9c469fe6a525680a2667dbc9d5a6ee41f64736f6c63430008140033",
  "linkReferences": {},
  "deployedLinkReferences": {},
  "immutableReferences": {},
  "inputSourceName": "project/contracts/FlareCreditOracle.sol",
  "buildInfoId": "solc-0_8_20-8bfe6d56d879f4bc07f189196ad39dbdcb9be8f9"
}